:020000040000fa
:080000000002040000000000f2
:020000040000fa
:040008008803000069
:020000040000fa
:04000c00e00200000e
:020000040000fa
:0400100004030000e5
:020000040000fa
:0400140028030000bd
:020000040000fa
:040018004c03000095
:020000040000fa
:04001c008803000055
:020000040000fa
:040020008803000051
:020000040000fa
:04002400880300004d
:020000040000fa
:040028008803000049
:020000040000fa
:04002c008803000045
:020000040000fa
:040030008803000041
:020000040000fa
:04003400f440000094
:020000040000fa
:040038008803000039
:020000040000fa
:04003c008803000035
:020000040000fa
:040040008803000031
:020000040000fa
:04004400880300002d
:020000040000fa
:040048008803000029
:020000040000fa
:04004c008803000025
:020000040000fa
:040050008803000021
:020000040000fa
:04005400942f0000e5
:020000040000fa
:04005800322f000043
:020000040000fa
:04005c008803000015
:020000040000fa
:040060008803000011
:020000040000fa
:04006400880300000d
:020000040000fa
:040068008803000009
:020000040000fa
:04006c008803000005
:020000040000fa
:040070008803000001
:020000040000fa
:0400740088030000fd
:020000040000fa
:0400780088030000f9
:020000040000fa
:04007c0088030000f5
:020000040000fa
:0400800088030000f1
:020000040000fa
:0400840088030000ed
:020000040000fa
:0400880088030000e9
:020000040000fa
:04008c0088030000e5
:020000040000fa
:0400900088030000e1
:020000040000fa
:0400940088030000dd
:020000040000fa
:0400980088030000d9
:020000040000fa
:04009c0088030000d5
:020000040000fa
:0400a0001a2c000016
:020000040000fa
:0400a400b82b000075
:020000040000fa
:0400a80088030000c9
:020000040000fa
:0400ac0088030000c5
:020000040000fa
:0400b00088030000c1
:020000040000fa
:0400b40088030000bd
:020000040000fa
:0400b80088030000b9
:020000040000fa
:0400bc0088030000b5
:020000040000fa
:0400c00088030000b1
:020000040000fa
:0400c40088030000ad
:020000040000fa
:0400c80088030000a9
:020000040000fa
:0400cc0088030000a5
:020000040000fa
:0400d00088030000a1
:020000040000fa
:0400d400880300009d
:020000040000fa
:0400d8008803000099
:020000040000fa
:0400dc008803000095
:020000040000fa
:0400e0008803000091
:020000040000fa
:0400e400880300008d
:020000040000fa
:0400e8008803000089
:020000040000fa
:0400ec008803000085
:020000040000fa
:0400f000f0260000f6
:020000040000fa
:0400f400880300007d
:020000040000fa
:0400f8008803000079
:020000040000fa
:0400fc008803000075
:020000040000fa
:040100008803000070
:020000040000fa
:04010400880300006c
:020000040000fa
:040108008803000068
:020000040000fa
:04010c008803000064
:020000040000fa
:040110008803000060
:020000040000fa
:04011400880300005c
:020000040000fa
:040118008803000058
:020000040000fa
:04011c008803000054
:020000040000fa
:040120008803000050
:020000040000fa
:04012400880300004c
:020000040000fa
:040128008803000048
:020000040000fa
:04012c008803000044
:020000040000fa
:040130008803000040
:020000040000fa
:04013400880300003c
:020000040000fa
:040138008803000038
:020000040000fa
:04013c008803000034
:020000040000fa
:040140008803000030
:020000040000fa
:04014400880300002c
:020000040000fa
:040148008803000028
:020000040000fa
:04014c008803000024
:020000040000fa
:040150008803000020
:020000040000fa
:04015400880300001c
:020000040000fa
:040158008803000018
:020000040000fa
:04015c008803000014
:020000040000fa
:040160008803000010
:020000040000fa
:04016400880300000c
:020000040000fa
:040168008803000008
:020000040000fa
:04016c008803000004
:020000040000fa
:0401700074360000e1
:020000040000fa
:04017400123600003f
:020000040000fa
:0401780088030000f8
:020000040000fa
:04017c0088030000f4
:020000040000fa
:0401800088030000f0
:020000040000fa
:0401840088030000ec
:020000040000fa
:04018800043300003c
:020000040000fa
:04018c00a23200009b
:020000040000fa
:0401900088030000e0
:020000040000fa
:0401940088030000dc
:020000040000fa
:0401980088030000d8
:020000040000fa
:04019c0088030000d4
:020000040000fa
:0401a00088030000d0
:020000040000fa
:0401a40088030000cc
:020000040000fa
:0401a80088030000c8
:020000040000fa
:0401ac0088030000c4
:020000040000fa
:0401b00088030000c0
:020000040000fa
:0401b40088030000bc
:020000040000fa
:0401b80088030000b8
:020000040000fa
:0401bc0088030000b4
:020000040000fa
:0401c00088030000b0
:020000040000fa
:0401c40088030000ac
:020000040000fa
:0401c80088030000a8
:020000040000fa
:0401cc0088030000a4
:020000040000fa
:0401d00088030000a0
:020000040000fa
:0401d400880300009c
:020000040000fa
:0401d8008803000098
:020000040000fa
:0401dc008803000094
:020000040000fa
:0401e0008803000090
:020000040000fa
:0401e400880300008c
:020000040000fa
:0401e8008803000088
:020000040000fa
:0401ec008803000084
:020000040000fa
:0401f0008803000080
:020000040000fa
:0401f400880300007c
:020000040000fa
:0401f8008803000078
:020000040000fa
:0401fc008803000074
:020000040000fa
:040208008803000067
:020000040000fa
:04020c00700300007b
:020000040000fa
:040210007603000071
:020000040000fa
:040214007c03000067
:020000040000fa
:04021800820300005d
:020000040000fa
:04021c008803000053
:020000040000fa
:04022000880300004f
:020000040000fa
:04022400880300004b
:020000040000fa
:040228008803000047
:020000040000fa
:04022c008803000043
:020000040000fa
:04023000880300003f
:020000040000fa
:04023400880300003b
:020000040000fa
:040238008803000037
:020000040000fa
:04023c008803000033
:020000040000fa
:04024000880300002f
:020000040000fa
:04024400880300002b
:020000040000fa
:040248008803000027
:020000040000fa
:04024c008803000023
:020000040000fa
:04025000880300001f
:020000040000fa
:04025400880300001b
:020000040000fa
:040258008803000017
:020000040000fa
:04025c008803000013
:020000040000fa
:04026000880300000f
:020000040000fa
:04026400880300000b
:020000040000fa
:040268008803000007
:020000040000fa
:04026c008803000003
:020000040000fa
:0402700088030000ff
:020000040000fa
:0402740088030000fb
:020000040000fa
:0402780088030000f7
:020000040000fa
:04027c0088030000f3
:020000040000fa
:0402800088030000ef
:020000040000fa
:0402840088030000eb
:020000040000fa
:0402880088030000e7
:020000040000fa
:04028c0088030000e3
:020000040000fa
:0402900088030000df
:020000040000fa
:0402940088030000db
:020000040000fa
:0402980088030000d7
:020000040000fa
:04029c0088030000d3
:020000040000fa
:0402a00088030000cf
:020000040000fa
:0402a40088030000cb
:020000040000fa
:0402a80088030000c7
:020000040000fa
:0402ac0088030000c3
:020000040000fa
:0402b00088030000bf
:020000040000fa
:0402b40088030000bb
:020000040000fa
:0402b80088030000b7
:020000040000fa
:0402bc0088030000b3
:020000040000fa
:0402c00088030000af
:020000040000fa
:0402c40088030000ab
:020000040000fa
:0402c80088030000a7
:020000040000fa
:0402cc0088030000a3
:020000040000fa
:0402d000880300009f
:020000040000fa
:0402d400880300009b
:020000040000fa
:0402d8008803000097
:020000040000fa
:0402dc008803000093
:020000040000fa
:0402e000880300008f
:020000040000fa
:0402e400880300008b
:020000040000fa
:0402e8008803000087
:020000040000fa
:0402ec008803000083
:020000040000fa
:0402f000880300007f
:020000040000fa
:0402f400880300007b
:020000040000fa
:0402f8008803000077
:020000040000fa
:0402fc008803000073
:020000040000fa
:04030000880300006e
:020000040000fa
:04030400880300006a
:020000040000fa
:040308008803000066
:020000040000fa
:04030c008803000062
:020000040000fa
:04031000880300005e
:020000040000fa
:04031400880300005a
:020000040000fa
:040318008803000056
:020000040000fa
:04031c008803000052
:020000040000fa
:04032000880300004e
:020000040000fa
:04032400880300004a
:020000040000fa
:040328008803000046
:020000040000fa
:04032c008803000042
:020000040000fa
:04033000880300003e
:020000040000fa
:04033400880300003a
:020000040000fa
:040338008803000036
:020000040000fa
:04033c008803000032
:020000040000fa
:04034000880300002e
:020000040000fa
:04034400880300002a
:020000040000fa
:040348008803000026
:020000040000fa
:04034c008803000022
:020000040000fa
:04035000880300001e
:020000040000fa
:04035400880300001a
:020000040000fa
:040358008803000016
:020000040000fa
:04035c008803000012
:020000040000fa
:04036000880300000e
:020000040000fa
:04036400880300000a
:020000040000fa
:040368008803000006
:020000040000fa
:04036c008803000002
:020000040000fa
:0403700088030000fe
:020000040000fa
:0403740088030000fa
:020000040000fa
:0403780088030000f6
:020000040000fa
:04037c0088030000f2
:020000040000fa
:0403800088030000ee
:020000040000fa
:0403840088030000ea
:020000040000fa
:0403880088030000e6
:020000040000fa
:04038c0088030000e2
:020000040000fa
:0403900088030000de
:020000040000fa
:0403940088030000da
:020000040000fa
:0403980088030000d6
:020000040000fa
:04039c0088030000d2
:020000040000fa
:0403a00088030000ce
:020000040000fa
:0403a40088030000ca
:020000040000fa
:0403a80088030000c6
:020000040000fa
:0403ac0088030000c2
:020000040000fa
:0403b00088030000be
:020000040000fa
:0403b40088030000ba
:020000040000fa
:0403b80088030000b6
:020000040000fa
:0403bc0088030000b2
:020000040000fa
:0403c00088030000ae
:020000040000fa
:0403c40088030000aa
:020000040000fa
:0403c80088030000a6
:020000040000fa
:0403cc0088030000a2
:020000040000fa
:0403d000880300009e
:020000040000fa
:0403d400880300009a
:020000040000fa
:0403d8008803000096
:020000040000fa
:0403dc008803000092
:020000040000fa
:0403e000880300008e
:020000040000fa
:0403e400880300008a
:020000040000fa
:0403e8008803000086
:020000040000fa
:0403ec008803000082
:020000040000fa
:0403f000880300007e
:020000040000fa
:0403f400880300007a
:020000040000fa
:0403f8008803000076
:020000040000fa
:0403fc008803000072
:020000040000fa
:10040000efde20000e7f22000e01880000000000b9
:10041000000020000000e000020032000001200087
:10042000200288000c00070080c12300010020008a
:100430000f000700000020000000e0000200320072
:1004400000000200000000006646020000000000fc
:100450000040da000000fe00e03620000000e0006e
:1004600002003200002020009001880000000600f9
:10047000a1028800800078000000eb001a0037001d
:10048000e280400054a0b4009101ba00e280400034
:1004900054a0b4009102ba00e280400054a0b4001d
:1004a0000002eb00472bde00f507b200a601880032
:1004b000602ce10008003a000049eb000201e8006e
:1004c000020039003420ec0002f0a0008301e900b2
:1004d000f9ff3e00040037006128e100010032000e
:1004e0000082eb000b00070011c3ba001101ba0033
:1004f0000604e00003003a000200e000e0ff3a00da
:1005000000000600f607b200a6028800820078000c
:10051000f5ff370004d0a300e20f49001c003900aa
:10052000810278003549ba000201e8000200390072
:100530003420ec0002f0a0008301e9000f0032003b
:100540002549ba000201e800020039003420ec001d
:1005500002f0a0008301e900080032000400e0007e
:100560000600320015c9ba000201e8000200390095
:100570003420ec0002f0a0008301e9008180e80053
:1005800054a0b4000300e000e2ff3a0000000600bf
:100590009102ba00055978008301e900f7ff3200a3
:1005a000c82ade00055978008301e900f3ff320014
:1005b0000400e000f1ff320011d9ba00eeff37006d
:1005c000809fbe00821f78000000fa008020a900f2
:1005d000700c80004800de00614060000004a20052
:1005e000614060000080fb00610060004800dd00a9
:1005f000720c8000f1ef2f0081006100010070009b
:10060000700c8800f2ff3700809fbe00821f7800c8
:100610000000fa008060a900700c80004700de0036
:10062000614060000004a200614060000080fb00a7
:10063000610060004700dd00720c8000f1f72f00c0
:100640008100610001007000700c8800f2ff37002b
:10065000809fbe00821f78000000fa008040a90041
:10066000700c80004700de00614060000004a200c2
:10067000614060000080fb00610060004700dd0019
:10068000720c8000f1f72f00810061000100700002
:10069000700c8800f2ff3700809fbe00821f780038
:1006a0000000fa008080a900700c80004800de0085
:1006b000614060000004a200614060000080fb0017
:1006c000610060004800dd00720c8000f1ef2f0037
:1006d0008100610001007000700c8800f2ff37009b
:1006e0000000fa008020a900ffff37000000fa0098
:1006f0008060a900ffff37000000fa008040a900d9
:10070000ffff37000000fa008080a900ffff3700dc
:10071000809fbe00821f78000000fa00700c8000ed
:100720004800de00614060000004a20061406000fb
:100730000080fb00610060004800dd00720c80005a
:10074000f1ef2f008100610001007000700c880043
:10075000f2ff37000a00fa00e20f500020003e00ce
:10076000606f8000e10f500006003200e051200071
:10077000a551200083512000645120000000e000ba
:1007800004003a00805020004550200023502000f3
:1007900004502000060028001403630003003a0000
:1007a0000608780000002800140a700013a8a300af
:1007b00001003a0013a0a0000200780005003700f5
:1007c0001388a300feff32003102fb00840a780088
:1007d0000000e9000000e000f9ff3a0008003700df
:1007e00033002000b3bf9f00c0bf9f00d1bf9f0058
:1007f000e2bf9f006a805700580807006fb9970052
:10080000020078000080fa000000060003f0a20059
:10081000889fbe008a9fbe008c1f78008100070061
:10082000880033006450e1004f0032006420e10092
:100830005200320003826c0007003b000905d00023
:100840000306d000820f54000c065d000200390040
:100850000200320089017800030678008582550085
:1008600004003d000003fd008103fd008502ea0055
:100870008b854200840f720002003b006000100074
:10088000e08018006011b8000005eb007a28e10054
:100890000a00390006007800c75ddd00f707b200e6
:1008a000878075002d003700828171000a01780071
:1008b000610560008180d1000080d3008502e900dd
:1008c000f9ff3b00060440008784480002003b001b
:1008d00060041400e0841c000988a30007003200b3
:1008e0008a81710082817100610164008904d100f4
:1008f0000884d3008b05e800170037000978a300af
:1009000013003a000b00e000130034008b05e900ef
:100910000804440089844c000a4474000978a30048
:100920000d003a000b00e000070034008b05e900e1
:100930000804440089844c0001003a000b002000a8
:100940000978a300f7ff32000001eb000200370036
:10095000828171000a0178000c0007000cf0a700ea
:1009600001f0a000400037006420e10002003a00de
:10097000838f6c00400033000801be000200be00ff
:1009800039003700140020003e00370081002000ad
:10099000618055000b003d000b00200061fe2f0020
:1009a0000100e1001d0034008281710061016400da
:1009b0008904d1000884d3000000e800faff3a005f
:1009c00071002000610064000300700002006000fc
:1009d0000900320061044400e0844c000988a5004d
:1009e000050032008b05e8006808e10002003a00cb
:1009f0008904d1000884d300f20f20000258e100de
:100a000005003d00c75ddd00f907b2008980750073
:100a100008007800000006000bf827008b00780023
:100a2000000005000004be00310007000003be0006
:100a30000405be000200be002d000700844f7500b3
:100a4000000006000200be006450e1000500360010
:100a50006420e100020036000968a30001003a00aa
:100a60000800be000160a0004f0678004f05be00e0
:100a70004f04be0000000600f0ff2f00f1ff27002a
:100a8000f9ff3700889fbe008a9fbe00841f780050
:100a9000e4ff07004f00780011003300f0ff2f0043
:100aa000838f6c0006003b00040565000a00a70068
:100ab0000800370009f0a6001000200008003700e9
:100ac000820f5400838f5c00030039001000200067
:100ad00001003e000000200009f0a7000000ea002d
:100ae0004f05be004f04be000000e00000000600fd
:100af000c70ade00f107b200f50fb20008003200ad
:100b0000e1cf4200020032000170a0002400050085
:100b1000810f700001003200040805004400050048
:100b2000810f700002003a00140005008502e90000
:100b30000000400081c04800fcff3b000170a000a5
:100b4000240005008001780002003700b1597800c8
:100b50000201e9000200e000fcff3a00000006008c
:100b6000889fbe000004be00050037000000fb00a7
:100b700089007800f7060700e10f4000040032000a
:100b8000384078000004e000f8ff3a000000eb0075
:100b90004f04be0000000600881f780061db2000c3
:100ba000efff07000004780061db2000a0002000b8
:100bb000e8060700080078004f04780000000600ef
:100bc000b041780031c1510002003a000304e00056
:100bd000fbff3a000200fb000000060080007800e6
:100be0003104e000feff3a000080ea00008040008f
:100bf000000006000a003700b04178000304e0005e
:100c0000030032000201e900b1cf510004003200bc
:100c10008381fb001480fb0000805100000006006f
:100c2000010278000200e000f3ff3a000000050036
:100c3000889fbe000004be000b003700090078004a
:100c4000e6ff0700000178000800be00e9ff07008a
:100c50000000e000090032000800e8009900fb00f5
:100c60000b000700000478000800e00003003200d9
:100c70001804e000f1ff3a000004eb0008007800df
:100c80004f04be000000060061db2000b106370003
:100c90000001eb006103b8006112b8008601420058
:100ca00066427a00814f5200040032000201e800df
:100cb0000404e000f7ff3a008001eb000300780035
:100cc000000006000c00fa00889fbe0000047800b7
:100cd000f0ff2700d0bf9f008004eb0099bf9f006a
:100ce00088bf9f00a8bf9f00200c2000b0bf9f00be
:100cf00078815700cfb0970070805700cf00070071
:100d00000fb89700094878008fb897000880500006
:100d10004f04be000080fa00000006000800fa0040
:100d2000889fbe008a9fbe000084fb00d1c6b3002e
:100d3000814f5000340036004b062000110009009e
:100d40000b84d80081057800720040004300dd006c
:100d5000c98e2000008044006022b80006002000f8
:100d600007fe23005001be004000be00c00807007f
:100d70000002be000203be0084bf9f0095bf9f001b
:100d8000a6bf9f00b7bf9f00aa0020001100090066
:100d90008a85d80080057800e9854500c35ddd00bf
:100da0008b8544003b02be002b03be000fb89700aa
:100db0009fb897002fb99700bfb99700ac080700fc
:100dc0000002be000203be0084bf9f0095bf9f00cb
:100dd000a6bf9f00b7bf9f00110009000a84d8007a
:100de000010478004344dd00888444003902be00d9
:100df0002903be000fb897009fb897002fb997003e
:100e0000bfb997001d003700ea4f500013003600ad
:100e1000aa002000110009000a84d800010578000a
:100e2000690440004344dd00c98e2000088444006a
:100e30006022b8000600200007fe23003800be0034
:100e40002801be008a0807004355dd008a8444005b
:100e50003902be002903be00080037004344dd000c
:100e6000c08e2000080440006022b8000600200068
:100e700007fe23003800be002801be007c080700e2
:100e80004f05be004f04be000080fa0000000600bf
:100e90000800fa00889fbe008a9fbe00d1c6b3003a
:100ea0000004e00023003d000040ea000004fb00d5
:100eb000814f50000a003400420620001100090052
:100ec0000204d800a9002000110009008900d80000
:100ed000e9004000c308dd00ca8e20002100370071
:100ee000ea4f500010003400a20020001100090059
:100ef0000204d80001017800690040004300dd00d1
:100f0000c18e2000008040004311dd00828040003f
:100f10003102be002103be005001be004000be00f1
:100f200053080700380037004344dd00c08e20001e
:100f3000320037000004fb00814f500023003400d2
:100f400042062000110009000204d800a900200078
:100f5000110009008900d800e9004000c308dd0045
:100f6000ca832000810045003102be002103be007b
:100f70008b0920008a8545003b00be002b01be0086
:100f80003b0807000002be000203be0084bf9f00b2
:100f900095bf9f00a6bf9f00b7bf9f00110009002b
:100fa0000904d800010478004344dd000805450029
:100fb0003a02be002a03be000fb897009fb8970000
:100fc0002fb99700bfb99700d5ff3700ea4f5000ff
:100fd00008003400a2002000110009000204d8001b
:100fe00001017800690040004300dd00c18320005a
:100ff000c4ff37004344dd00c083200008044000e4
:101000003800be002801be004f05be004f04be00e0
:101010000080fa0000000600d0019000028151001b
:101020004240a90003003400100178000149780013
:101030000208e80001007800000006002f04b0005c
:10104000889fbe008a9fbe008c9fbe008e1f7800c6
:1010500000067800e19f9f0082af9f006000b8000b
:101060006011b80080a79f0091a79f00a2a79f00d2
:10107000b3a79f008006eb00a3053700ef98970009
:101080008100e800e19f9f0051c2b300814f5000f2
:1010900003003a006f9997000007eb00110037003a
:1010a000bc0090000000fb000168a30007003200b4
:1010b0000d017800800078000c007800d6ff070052
:1010c0000000e00005003a008f0537008c00780032
:1010d000a0050700e10f40008b0532008d06e800f7
:1010e0008905370002007800b2407800d3c2b3000f
:1010f00083cf50000c00320007003c00edc15100ce
:1011000083cf50000a003200ebc1410083cf500072
:101110000d003a000800370003c3b30083cf50002e
:1011200009003a00060037000e30a000edff37003e
:101130000e00a000ebff37000e10a000e9ff370003
:101140000e20a000e7ff37000e18a30001003200b8
:101150000e00a1000e38a300010032000e20a100f5
:101160000101fb000203b100e90f51000e003e0037
:10117000800078000001eb0092b79f006a11b9006f
:101180003100fb000003b1000201400001007800c3
:101190009101fb000303b100e98f5100f7ff360016
:1011a00092b79f000a0037008001eb0093b79f00c1
:1011b000a2c2b30082cf500005003a000faa9700e8
:1011c000c402780084af9f0095b79f000000e8003c
:1011d000e1c2b30090cf100017003a000ee0a0006b
:1011e000e4c05000d0cf100003003200800078002f
:1011f0008001eb00090037008fab9700c700780033
:1012000087af9f00d1af9f000000e8000001780089
:101210000d0037006a1ab90084014100010078000e
:101220003101fb000203b100e90f5100f9ff360064
:10123000d3af9f00f5ff37000ec0a0000001eb0008
:10124000d2af9f00f1ff3700820178003340780071
:1012500003017800c1c6b300814f50002b0032005b
:10126000e39f9f0014003c00e8c05000814f5000f5
:101270002400320009003c00ecc05000814f5000b7
:101280002e003200ebc04000814f50009800320029
:101290000004e00021053200b400370061c6b3004d
:1012a000814f50001f003200e3c04000814f5000ca
:1012b000ae003a001300370031c7b300814f500031
:1012c0002200320007003c00e4c05000814f500073
:1012d000170032008140e800814f5000a3003a001f
:1012e0001600370051c7b300814f5000a4003200f0
:1012f000e3c04000814f50009c003a00a0779f005f
:1013000010003700a0779f009f00370000012000e9
:101310000e48a30001003200000028000e077000f4
:10132000c9ff3700a0779f000ea0a00096003700ed
:10133000a0779f000e60a00093003700a0779f0069
:101340000e50a0000e70a0008f003700a0779f0005
:101350008fa997004300780083af9f0000047800b6
:101360000000e00001003a00a8ad200088007800ed
:101370000000eb00010037000000e8006141780048
:101380000204e000fcff3a00800478005faa9700a6
:101390000400e00003003200890f52000100310018
:1013a000840478008001eb009fb29700898f52007f
:1013b000010036008981520068036700d6af9f00a4
:1013c0002c003a0003077800110037003c00900021
:1013d0000068a300070032000d0178000102200020
:1013e0000c0078000cff07000000e00006003a0047
:1013f000060037008c00780000022000d5040700aa
:10140000e10f4000010032008d06e8000e07e90000
:101410000e00e000edff3a008081eb001500370080
:101420003c0090000068a30009003200080078002a
:10143000b000fb00000478000d0178000c0078007b
:10144000f5fe07000000e00008003a000a0037003f
:10145000880078003100fb00010478008c007800df
:10146000bc040700e10f4000030032008d06e800d5
:101470000100370003077800090078008004e900c4
:101480000000e000e6ff3a008e017800dfab970035
:101490000700e0009c0432000307780011003700c9
:1014a0003c0090000068a300070032000d017800a6
:1014b000010220000c007800d7fe07000000e000c9
:1014c00006003a00060037008c0078000002200079
:1014d000a0040700e10f4000010032008d06e80083
:1014e0000e07e9000e00e000edff3a008604370029
:1014f0008fa897004100780081af9f006102b9007a
:10150000612bb90094af9f00a5af9f00b6af9f00bd
:10151000c7af9f004822de004828dd0004027000ab
:10152000a4779f000e48a300090032000404e000e5
:1015300007003200e14f420005003200b4779f00ff
:10154000afd09700c1779f0029002000030037002b
:101550002fd19700b2779f001900200023fb2f00a6
:101560008f8141000304e80088ff3700a0779f00c7
:1015700028fb2f000f0444001900200083ff3700d0
:10158000a0779f000e0cb3000070200000006700e1
:10159000640232000ec8a300020032006400200082
:1015a000d4af9f000e48a300090032000faa970095
:1015b0004401be004400be0084af9f0090af9f0076
:1015c000a1af9f00b2af9f00c3af9f000a003700da
:1015d0008faa97004500be0085af9f000c0607004c
:1015e0000002be000203be0094af9f00a5af9f00a3
:1015f000b6af9f00c7af9f006022b8006033b8004d
:101600001fa89700afa897003fa99700cfa9970000
:10161000510507000000e0000a003d001fa89700e8
:10162000afa897003fa99700cfa9970003f0a200a9
:1016300090af9f00a1af9f00b2af9f00c3af9f00cc
:101640003e00b3000000eb00b09f9f006022b80096
:101650006033b8001fa89700afa897003fa9970074
:10166000cfa99700a00507000000e0003400320079
:1016700064fb2f000f0242001fa89700afa897003d
:101680003fa99700cfa997005c0607003f989700f5
:101690000000e9006302b900a20020001100090067
:1016a0000202d800b09f9f000000e00002003d0051
:1016b0000000e900b09f9f003f9c97000840ea00af
:1016c000f3fd07001faa9700afaa97003fab970052
:1016d000cfab9700660607000002be000203be0003
:1016e00084a79f0095a79f00a6a79f00b7a79f006c
:1016f0006022b8000600200007ff2300160507003f
:101700000000e00002003d000804e9000b00370083
:101710006022b80006002000470224000fa09700b6
:101720009fa097002fa19700bfa197000f0507006a
:101730000000e000020035000804e800b89f9f00a8
:10174000dfaa9700f88f52000f003c000540780098
:1017500072fd07000002be000203be001fa8970032
:10176000afa897003fa99700cfa997007d04070075
:101770000002be000203be0094af9f00a5af9f0011
:10178000b6af9f00c7af9f003f9c9700e90f540082
:1017900015003c006022b8006033b8001fa8970015
:1017a000afa897003fa99700cfa997004e05070063
:1017b0000000e000320032001fa89700afa8970099
:1017c0003fa99700cfa99700b0050700e00f500090
:1017d000e08f5800e00f5900e08f590028003a00d0
:1017e000e10f5400260034000400200005002e0004
:1017f000b6e02200170124000fa097009fa09700d9
:101800002fa19700bfa19700d30407000000e000bc
:1018100002003d00730454000100370072045400bc
:10182000b89f9f006f70970099fd07000002be00ef
:101830000203be0084a79f0095a79f00a6a79f0054
:10184000b7a79f001fa89700afa897003fa99700d0
:10185000cfa99700ca0407008c0507000205be0047
:101860000004be006000b8006011b80090af9f0097
:10187000a1af9f00b2af9f00c3af9f00170037001a
:101880001fa89700afa897003fa99700cfa997007e
:101890007e0507000205be000004be00ac0507007f
:1018a0000002be000203be001fa89700afa8970069
:1018b0003fa99700cfa99700620607000002be006b
:1018c0000203be0094af9f00a5af9f00b6af9f007c
:1018d000c7af9f000000eb00b09f9f00a5ae2000a7
:1018e00014c0b300080037003500be003501be004b
:1018f0000040e10001c8e10002d0e10003d8e100ae
:10190000030039000442e800f44f5200f6ff3a00a9
:10191000a4779f003f9897009fb2970000805200e5
:101920005fab9700860050000400fb000080500071
:1019300090b79f000600e000020032000000e900be
:1019400090b79f0063006700030032009fb39700c9
:101950008703e90097b79f000e28a30050003200cc
:10196000610167000e18a3000f0032003c009000d8
:101970000068a30006003200b10220000200e0006f
:10198000010032008180e8000d0178000d00370071
:10199000b00220000200e000010032000080e800f8
:1019a0008c0078000e0037000200e00033003200a7
:1019b0003c0090000068a300070032000d01780091
:1019c000010220000c00780093fd07000000e000f9
:1019d00006003a00290037008c0078000002200041
:1019e0005c030700e10f4000240032008d06e80090
:1019f000220037003c0090000068a3000f00320076
:101a00000d017800010320000c007800f4b79f005e
:101a100085bf9f00d6b79f00e7b79f007efd0700f8
:101a20007fb297008fba97005fb39700efb397002c
:101a30000000e0000e003a000e0037008c00780035
:101a400000032000f4b79f0085bf9f00d6b79f001a
:101a5000e7b79f003f0307007fb297008fba970058
:101a60005fb39700efb39700e10f40000100320031
:101a70008d06e8008904e900030037000802be0073
:101a80000a03be009fb497000900e000d9ff3c00a4
:101a900099b79f000605be000404be00670037002a
:101aa0000e38a3001e003a00c8a79f00d9a79f00c8
:101ab000eaa79f00fba79f009fb497001100370083
:101ac0003c0090000068a300070032000d01780080
:101ad000010220000c0078004ffd07000000e0002c
:101ae00006003a00060037008c0078000002200053
:101af00018030700e10f4000010032008d06e800e6
:101b00008904e9000900e000edff3c0099b79f005f
:101b10004fa49700dfa497006fa59700ffa597003b
:101b2000610167000e18a3000e0032003c00900017
:101b30000068a30005003200b10220000200e000ae
:101b4000250032008180e80023003700b002200029
:101b50000200e000010032000080e8008c00780004
:101b6000320037000200e000340032003c009000f8
:101b70000068a300030032000d017800010220007c
:101b8000160037008c007800000220002700370084
:101b90003c0190008100fb0020ae20000268a30001
:101ba00013003200c308dd00010040003002be0017
:101bb0002003be000800be000a01be005206070056
:101bc000a4002000050020006033b800550607007f
:101bd00001032000808040000d0178000c00780097
:101be0000dfd07000000e00013003a00130037006d
:101bf000c308dd00010040003002be002003be002b
:101c00000800be000a01be003f060700a400200035
:101c1000050020006033b8004206070002032000e0
:101c2000000141008c00780002007800c902070022
:101c3000e10f4000010032008d06e8002f70970090
:101c40008040e900a1779f000004e000d0ff3a0047
:101c5000130037003c0090000068a300070032002a
:101c60000d017800010320000c007800eafc070059
:101c70000000e00006003a00060037008c00780003
:101c800000032000b3020700e10f40000100320012
:101c90008d06e8003f9897000000e900b09f9f0084
:101ca0003f9897000000e000eaff3c00dfa89700a3
:101cb000f28f50000300340020c1b300a0779f00d2
:101cc000020037002fd99700a2779f002f7097004e
:101cd0008000fb00dfa9970081805100d1af9f00f9
:101ce0000004e000100032003c0090000068a300f7
:101cf000070032000d017800e10220000c0078009e
:101d0000c5fc07000000e00006003a0006003700ae
:101d10008c007800e00220008e020700e10f4000f6
:101d2000010032008d06e8002f70970058fc070074
:101d30000002be000203be001fa89700afa89700d4
:101d40003fa99700cfa99700c90407004f040700d7
:101d5000330037003c01900021ae20000000fb0062
:101d60000268a300130032004300dd000080400041
:101d70003002be002003be000800be000a01be0003
:101d8000e1050700a4002000050020006033b80032
:101d9000e40507000003b0000d0178008000780022
:101da0000c0078009cfc07000000e00011003a00e5
:101db000110037004300dd00008040003002be000b
:101dc0002003be000800be000a01be00ce050700c9
:101dd000a4002000050020006033b800d1050700f2
:101de0000003b0008c0078005a020700e10f4000a9
:101df000010032008d06e8002f7297000400fb00fe
:101e00004300dd0021ae2000008040003002be0013
:101e10002003be000800be000a01be00c105070085
:101e20000205be000004be00af7097000140e9004b
:101e3000a0779f000104e000c6ff3a0098af9f0022
:101e4000a9af9f00baaf9f00cbaf9f00dfac970058
:101e5000110037003c0090000068a300070032002a
:101e60000d017800010320000c0078006afc0700d7
:101e70000000e00006003a00060037008c00780001
:101e80000003200033020700e10f40000100320090
:101e90008d06e8008904e9000900e000edff3a0042
:101ea0001fac9700afac97003fad9700cfad970048
:101eb0000e38a300140232009fb097000100e0002a
:101ec00011023400d8af9f00e9af9f00faaf9f0026
:101ed0008bb79f00810478003c0090000068a3004d
:101ee000070032000d017800010220000c0078008c
:101ef00049fc07000000e00006003a000600370039
:101f00008c0078000002200012020700e10f400060
:101f1000010032008d06e8008904e900eeff3a0076
:101f2000f90137000e007800000cb20021003a00e1
:101f30000e00e00005003d008faa97004505be0099
:101f40004504be0085af9f000d0037000e48a3007a
:101f5000060032000fab97004604be0086af9f001c
:101f60004fcdde008a057800050037008fab970063
:101f70004704780087af9f00cfc4de00614db900f1
:101f8000e00f5400e08f5c00e00f5d00e08f5d002b
:101f90001b003d003e00b3006000b8006011b800b7
:101fa00008045000898458000a0559008b8559009f
:101fb000130037000e00e00005003d000fa8970059
:101fc0004005be004004be0080af9f000c003700fb
:101fd0000e48a300050032008fa897004104be0000
:101fe0006055b80081af9f00050037000fa997002a
:101ff0004204780082af9f008004eb006055b80077
:10200000dfa997000300e00009003a001400200057
:10201000d4af9f00e00f5400e08f5c00e00f5d0044
:10202000e08f5d00020032008002eb00d5af9f0020
:102030000e037800060cb20096af9f00000420004b
:10204000800f53002c00320003003c000600e0002b
:10205000080032003c003700000820009fab9700ca
:10206000808f530010003200000c2000808f53003e
:1020700035003a00a5ae200014c0b3003500be0004
:102080003501be000040e10001c8e10002d0e100de
:1020900003d8e1002b0039000442e800f44f52005d
:1020a000f6ff3a002700370014c0b30000012000fb
:1020b000010020006011b8000040e10001c8e1000b
:1020c00002d0e10003d8e1001e00390045002000e5
:1020d0000000d0008180d2000281d2008381d20032
:1020e0008502e900faff3a000442e800f04f52008e
:1020f000f1ff3a001300370014c0b3008000200045
:10210000010020006011b8000040e10001c8e100ba
:1021100002d0e10003d8e1000a00390036002000b7
:102120000000d0008180d2000281d2008381d200e1
:102130000603e900faff3a000442e800f54f5200b6
:10214000f1ff3a00a4779f00af7397000700fb00f0
:10215000dfa89700810f500002003d00a1779f008b
:10216000040037005fa99700800f510001003d0077
:10217000d0af9f009fb197000300e0000400320041
:1021800063006700020032008301e90093b79f00fb
:102190000ee8a300090032001fb29700dfaa9700e3
:1021a000850f5200030034000502520094b79f00cf
:1021b000020037000003eb0096b79f00af73970053
:1021c0000700fb008000eb00c1a79f001fb1970034
:1021d000800f51000200340000005100c0a79f0092
:1021e0000e28a30044003200610167000e18a3000e
:1021f0000f0032003c0090000068a300060032008f
:10220000b10220000200e000010032008180e800fd
:102210000d0178000d003700b00220000200e00040
:10222000010032000080e8008c0078000e003700ca
:102230000200e000100032003c0090000068a300a3
:10224000070032000d017800010220000c00780028
:1022500071fb07000000e00006003a0006003700ae
:102260008c007800000220003a010700e10f4000d6
:10227000010032008d06e800cfa197000300e000c6
:102280006200320098b79f00a9b79f00bab79f00bd
:10229000cbb79f00830478003c0090000068a30047
:1022a000070032000d017800010320000c007800c7
:1022b00059fb07000000e00006003a000600370066
:1022c0008c0078000003200022010700e10f40008d
:1022d000010032008d06e8008904e900eeff3a00b3
:1022e000c9a79f001fb49700afb497003fb59700f0
:1022f000cfb5970045003700cfa297000500e0005a
:102300001e0032000e38a3001c003a0098b79f0050
:10231000a9b79f00bab79f00cbb79f00850478008c
:102320003c0090000068a300070032000d01780017
:10233000010220000c00780037fb07000000e000dd
:1023400006003a00060037008c00780000022000ea
:1023500000010700e10f4000010032008d06e80097
:102360008904e900eeff3a00c9a79f001fb4970057
:10237000afb497003fb59700cfb5970061016700f4
:102380000e18a3000f0032003c0090000068a3006c
:1023900006003200b10220000200e000010032001d
:1023a0008180e8000d0178000d003700b0022000a8
:1023b0000200e000010032000080e8008c0078009c
:1023c0000e0037000200e000100032003c009000d8
:1023d0000068a300070032000d0178000102200010
:1023e0000c0078000cfb07000000e00006003a003b
:1023f000060037008c00780000022000d50007009e
:10240000e10f4000010032008d06e800dfa89700d0
:102410000100e9004201dd00d29f9f006301b90085
:1024200002027800c49f9f004300dd0021ae20001f
:1024300081004000f19f9f0098b79f00a9b79f00bf
:10244000bab79f00cbb79f0094003700dfa8970072
:102450008100e900d1af9f00000420001fa9970070
:10246000800f51006400320003003c000200e000d5
:10247000080032006f003700000820009fa9970075
:10248000808f510048003200000c2000808f5100e6
:1024900068003a000e00e0001a003d007f9a9700a5
:1024a0003404be002405be000802be000a03be00bc
:1024b0001fb09700afb097003fb19700cfb1970022
:1024c00011040700a0779f000000fb00cf80de0012
:1024d0006109b9000802be000a03be0073040700c8
:1024e0001fb29700afb297003fb39700cfb39700ea
:1024f0000002520081825a0002035b0083835b006a
:10250000170037000e48a3001a0032001fb29700d0
:10251000afb297007f9b97003604be002605be0031
:102520000801be000400be00f4b79f0085bf9f00f5
:1025300046030700a0779f000000fb00cf80de006d
:102540000801be00510307007fb297008fba9700c1
:102550000000520081805a000002be006033b800c3
:1025600094b79f00a5b79f00b6b79f00c7b79f005d
:1025700009003700ff9a9700150178001fb39700f4
:10258000110009000283d800a200200011000900f8
:102590000280d800a1779f00af7397000743b00077
:1025a000a7779f002300370090ac20000e58a300af
:1025b0000100320080ab20001fb29700afb297003d
:1025c0003fb39700cfb39700df9897008100e900f1
:1025d000050033008703d1000683d3008582d30032
:1025e0000482d300f9ff37006f02620060427a0074
:1025f000a4779f000f0037001fb09700afb097007f
:102600003fb19700cfb197004f9a97000402e900bd
:10261000050033008301d1000281d3008180d30003
:102620000080d300f9ff3700674060000043b0002e
:10263000a0779f00bc009000af7297000500fb00e0
:102640000168a300070032000d01780080007800c7
:102650000c00780070fa07000000e00005003a0066
:10266000050037008c0078003a000700e10f4000b9
:10267000010032008d06e8005f9b97006403530061
:10268000d69f9f00cf9b9700e3835300c79f9f0077
:102690007f98970068005000f09f9f00dfa8970088
:1026a0000100e00069ff3a000e38a3001600320076
:1026b0004fa197000200e0001300340002077800e9
:1026c0003c0090000068a300070032000d01780074
:1026d000010220000c0078004ffa07000000e00023
:1026e00006003a00060037008c0078000002200047
:1026f00018000700e10f4000010032008d06e800dd
:102700000e07e900eeff3a00ef99970013407800ba
:10271000a0779f000004e00058fa3a000d0078000e
:102720004f0778004f06be004f05be004f04be00a5
:102730002f04b100000006000000fa006881570075
:10274000cfb8970060db20003cfa07000080fa0059
:1027500000000600889fbe0001047800b8009000c9
:102760008084eb000118a3003a00320018019000a9
:102770000198a30002003a000200e00035003a0090
:102780000190a0003104980080047800f90fb20095
:102790000200e00002003a0028009000000c7800df
:1027a000ea8f540005003a000178a30003003a00c4
:1027b00088007800d0002000e6ff07001800900095
:1027c000d8009000810f50000b0032000000e8009c
:1027d000100498001800780009487800000ce80000
:1027e00011c0b30020de200001487800ea8f5400b9
:1027f00018003a000500370088007800094078008a
:10280000170007008004780012003700380090009d
:102810000088a3000f00320018019000a80090006b
:1028200048009000cbf7070098009000810f5000ff
:1028300004003200380090000003b3003004980018
:102840008084eb000000eb0010049800280090004a
:10285000000c7800090078004f04be00000006005c
:102860000200fa00889fbe00a0ff9f0001047800cc
:10287000380090000068a30033003a00e2006000d6
:1028800005003a000003b3003004980011049800da
:102890000080eb002e003700d80490000900e00013
:1028a00006003a0012002000e68057004800900021
:1028b000a8f707001904980023003700a80090002b
:1028c0000100e00008003a0051de200021049800d9
:1028d000010c780021002000510498001104980098
:1028e0000030a0003004980018019000a80090006b
:1028f0004800900097f70700280090008080eb00c8
:1029000011049800aff8970001487800000ce80027
:102910002ff89700ea4f50000b003a003800900063
:102920000088a3000800320018019000a800900061
:102930004800900087f707000000eb0010049800a3
:10294000a8009000010c7800aff897000100fb0090
:102950004f04be000080fa000000060000c0da004c
:10296000000006002800fa00889fbe008a9fbe0073
:102970008c9fbe0007067800878669000c003b002c
:10298000030478008704780008f0a10009f0a10092
:10299000840f5000858f5800860f5900890f5c0006
:1029a000030033000cf0a20001003a000cf0a1007b
:1029b000fe0007006400e1005f003200780147007c
:1029c0006408e100610032006c0147007485570023
:1029d0003200be001201be003a04be001a05be005d
:1029e0001e039000be0a90008503530006003d00c0
:1029f0000004fd008104fd000205fd008305fd00cb
:102a00008703ea00050378000df8a30004003200f4
:102a100060041400e0841c0060051d00e0851d00ba
:102a20006022b8007d0320000d38e1008006eb0035
:102a30000b0039004433dd00f300b2008301730062
:102a400039003700848272000d027800e1066400cc
:102a50008b85d1000a85d3008984d3000884d300f4
:102a60008703e900f7ff3b00080040008980480029
:102a70000a0149008b81490004003b0060001000fe
:102a8000e080180060011900e08119000358a300dc
:102a9000090032008d82720084827200610260003f
:102aa0008301d1000281d3008180d3000080d30054
:102ab0000603e8001b0037000348a30017003a0094
:102ac0000600e000170034000603e9000d00a30033
:102ad00000004800818048000201490083814900cc
:102ae0000348a3000f003a000600e000090034008c
:102af0000603e9000000400081804800020149000f
:102b00008381490001003a000003eb000348a30061
:102b1000f5ff32006022b8000200370084827200a4
:102b2000618266007500070003f0a1000cf0a700a9
:102b300003f0a000b1003700640147006408e10021
:102b400002003a000df8a300a9003a003200be00ce
:102b50001201be00a90037008f1fd100fc02070040
:102b60008f87e9000000e00000000600809feb0076
:102b7000f70207008f87e9000000e0000000060070
:102b80002800fa00889fbe008a9fbe008c9fbe006e
:102b900003866b00850007006400e10044003200fa
:102ba0006408e1004a0032006100e10046003200a2
:102bb0006108e10049003200ec0647006000b800ff
:102bc0003d02be003d03be00f48657006011b80010
:102bd0003d04be003d05be007d0320000b00370014
:102be0000000a0008d06e90013003200040242003c
:102bf00085824a0006034b0087834b00000040009b
:102c00008180480002014900838149000802520086
:102c100089825a000a035b008b835b00f0ff3b0054
:102c20000802420089824a000a034b008b834b0052
:102c30008d06e900edff3a00848272008682720000
:102c4000f707b200878272000100320015002000f1
:102c50001e0490003e0b900006035400e63fb000b7
:102c60000368a300070032000000a7000500a000d1
:102c70008301d1000281d3008180d3000080d30082
:102c80000603e8008301d1000281d3008180d300d4
:102c90000080d3000002eb000482d200170007007e
:102ca00003f0a1000cf0a70003f0a00053003700d0
:102cb000640247006408e1004d0032003400be00a9
:102cc0003401be00f6ff37006108e1004800320021
:102cd0006011b8006000b800f1ff370003ff270063
:102ce00002002000fbff3700801feb009802070066
:102cf0008f87e9000000e0000000060018002000b7
:102d000057002000080453000d003d00060020007d
:102d100097fc2f000740e1001e00340084827200ff
:102d2000610260008301d1000281d3008180d30061
:102d30000080d3000804e800f8ff3a0047002000b4
:102d40006104600005047400040464000d00320096
:102d500061004000e080480060014900e0814900d6
:102d600003b8a500070032000603e8006538e1005b
:102d700004003a008301d1000281d3008180d30096
:102d80000080d300f87f20000830e1000300350008
:102d9000080378006000b8006011b8004433dd001b
:102da000f300b200830173000000060068044700ce
:102db0000294be000094be00fc0447008694be004e
:102dc0008494be0009007800aa0207000800780079
:102dd000a802070099007800814f70000b003b00ab
:102de0000800be00830207004f00b1000300370057
:102df000f3ff2700f2ff2f006110b9004f06be005d
:102e00004f05be004f04be000080fa00000006001f
:102e10008103780036f707000001be006000b800ab
:102e20000478a30013003a006220e10015003e0080
:102e30000d0039008301d1000281d3008180d300cd
:102e40008301d1000281d3008180d3008301d100ae
:102e50000281d3008180d3000538b000c42add0090
:102e6000f300b2008381720007f0a70003f0a00016
:102e700000000600f3ff2700f2ff2f006110b900e9
:102e8000fbff370003ff2700f7ff37001400fa00ad
:102e9000889fbe008a9fbe008c9fbe000004be00bb
:102ea0000205be00680047000a90be000890be0000
:102eb000700207000070a7000bf0a1000bf8a30040
:102ec00020003a009e0990000e099000fe0090003c
:102ed0006e0090009e0290003443200084825200d5
:102ee000c6ff32000a003c00b4fc2f000428e100b9
:102ef000140034008301d1000281d3008180d3000b
:102f00000080d3008502e800faff3a00bbff3700db
:102f1000b40020000428e10007003c00000040004d
:102f20008180480002014900838149008502e9004f
:102f3000faff3a00b1ff370003002800020020002a
:102f4000010037006011b8006000b800abff370027
:102f5000889fbe000082700004027100048271002c
:102f60002400320036432000c50020008383cf00b8
:102f70000a0039000541b1008283cf000700390003
:102f80000541b1008183cf00040039000541b10043
:102f90008083cf00010039000541b10085c3530093
:102fa0006022b800120032000a003b0084827200e6
:102fb000610260008301d1000281d3008180d300cf
:102fc0000080d3000603e8008743e800f7ff3a00db
:102fd00007003700000040008180480002014900de
:102fe000838149000603e9008743e900f9ff3a00bd
:102ff00042ff07004f04be00000006001400fa0064
:10300000889fbe008a9fbe008c9fbe000406780089
:103010000004be000205be00680047000a90be0022
:103020000890be00130207006200e1000800be0025
:103030000a01be00040020000b003a001e029000ae
:10304000e43fb1006e009000fe0090000e09900079
:103050009e099000f300b20005fe230085817100f7
:103060000bf0a70003f0a000040e780063ff370008
:103070002800fa00889fbe008a9fbe008c9fbe0079
:1030800003866b0049ff07000028a30064003a0094
:103090000128a30067003a000008a30062003a007c
:1030a0000108a30065003a001e009000be089000d1
:1030b00081064000ed3fb100f4805700ee01900022
:1030c000111ab8008e099000311bb8009e099000bb
:1030d000311cb800511db800f485570046000700a8
:1030e000fe0190003a0007008b85e8003e000700d3
:1030f0008e09900040000700ee01900034000700a8
:103100008b85e800380007008e099000400007001a
:103110009e0990001b18b800890440000a854800e9
:10312000fe019000340007008b85e800380007009e
:10313000ee019000300007008e0990001b18b800c7
:10314000890440000a8548000a98a30008003a0054
:103150000402420085824a0006034b0087834b002d
:1031600008044c0089844c000a054d008d06e900d6
:1031700084827200850273004c3add008502720081
:103180000100320015002000443ade001400b200b5
:103190004538de00cb45dd000b007000c540de0089
:1031a000cb4ddd008b8070004549de00cb55dd0046
:1031b0000b017100c551de000d037800cffe070042
:1031c00003f0a1000cf0a70003f0a0000bff3700f4
:1031d0001b18b8008502400006834800e0834b00be
:1031e00060044c00070037001b18b80006034000bd
:1031f00087834800faff37001b18b8008703400098
:1032000008844800e0844c0060054d000000060082
:103210001b18b8000804400089844800faff3700f2
:103220000108a300f2fe3a005800be005801be009b
:10323000e3ff37000008a300edfe3a000904780020
:10324000f9ff370007f0a200c6fd37006022b80082
:10325000060220000000d0008180d2000482d2004b
:103260008582d2000000a0000202520083825a0030
:10327000030031000202420083824a000000a100e4
:103280000603e900f3ff3a0000000600020ab90055
:10329000001bb9000200b800810042008100430019
:1032a00000000600889fbe008a9fbe0030044200d6
:1032b000b0844a0030054b0090854b006000b1009f
:1032c0000898be000a90be000440e10005c8e10075
:1032d00006d0e10007d8e10002003100680040009c
:1032e0001008e8004f05be004f04be0000000600b5
:1032f000889fbe008a9fbe003004be002005be002d
:103300000418540005985c0006185d0007985d00dd
:10331000110020000440e10005c8e10006d0e100f2
:1033200007d8e100010039008000eb001088100090
:103330004f05be004f04be00000006001200fa0058
:10334000889fbe008a9fbe008c9fbe00e0b79f0092
:10335000f1b79f0082bf9f0093bf9f000605be008c
:103360000404be000000eb00d0b79f00c0b79f0070
:10337000b0b79f00a0b79f0090b79f000006eb007a
:103380005fb19700cfb09700820141003fb0970036
:103390000200e00004003d00370007007e80570077
:1033a000c0ff070003003700330007007e8057008e
:1033b000cfff0700dfb697000d00e0000c003500de
:1033c0006fb29700ffb297000fbb97009fbb9700ab
:1033d00010002000010020006011b80000027200ff
:1033e0008182720002037300838373001b00070055
:1033f0000c06e80001042000810f5600e0ff3a00af
:103400000d00e00004003d000802be000a03be00fb
:103410007e805700a3ff07005fa897000000e00030
:1034200005003a001fb29700afb297003fb3970074
:10343000cfb39700090007006fb09700ffb0970067
:103440000fb997009fb997004f06be004f05be0009
:103450004f04be000080fa000000060001000700d3
:1034600000000600a4b79f00b5b79f00c6b79f0035
:10347000d7b79f00000006004f09de00828171006f
:10348000b3b79f004f01de00818040008280700052
:10349000a1b79f008fb097004f09de0000004000e9
:1034a0000200700090b79f007fa897004f01de00d8
:1034b000818040008280700081b79f000d0007006e
:1034c0004f3ade000000400004007000f0af9f00a3
:1034d000080007000402420085824a0006034b00f0
:1034e00087834b00dfff07000802be000a03be000f
:1034f000000006002fb29700bfb297004fb39700ad
:10350000dfb3970000000600881f78001800200035
:10351000881f780089ff07008f87e9004f04780033
:1035200000000600801feb0084ff07008f87e90082
:1035300000000600889fbe008a9fbe00e00f50007a
:10354000e08f5800e00f5900e08f59000c003d005b
:103550006044b8006055b8000000540081805c00f1
:1035600002015d0083815d00180020001500070046
:1035700008003d00180007000004eb0005003700bc
:103580000004eb000f00070002003d0012000700de
:1035900018002000dcff07000800e00006003200f1
:1035a0006022b8006033b8000000520081805a00e9
:1035b00002015b0083815b004f05be004f04be002b
:1035c00000000600e00f5200e08f5a00e00f5b00a1
:1035d000e08f5b00000006006044b8006055b80052
:1035e0000402540085825c0006035d0087835d0051
:1035f00000000600889fbe008a9fbe008c1f7800d6
:10360000e00f5000e08f5800e00f5900e08f5900a4
:103610000d003d006044b8006055b8000000540043
:1036200081805c0002015d0083815d001c00200040
:103630000820e10009a8e1000ab0e1000bb8e100b0
:103640000d003d00080037000006eb00e00f5200bf
:10365000e08f5a00e00f5b00e08f5b0006003d004a
:103660006044b8006055b8000402540085825c00d4
:1036700006035d0087835d00aaff07000c00e000e1
:10368000060032006022b8006033b800000052002b
:1036900081805a0002015b0083815b004f06780045
:1036a0004f05be004f04be0000000600889fbe000c
:1036b0008a9fbe008c1f78000006eb00e00f5000d0
:1036c000e08f5800e00f5900e08f590007003d00df
:1036d0006044b8006055b8000000540081805c0070
:1036e00002015d0083815d001c002000e00f52009c
:1036f000e08f5a00e00f5b00e08f5b0007003d00a9
:103700006044b8006055b8000402540085825c0033
:1037100006035d0087835d000c00a2007c000700ab
:103720000c00e000060032006022b8006033b800f0
:103730000000520081805a0002015b0083815b001f
:103740004f0678004f05be004f04be000000060083
:10375000889fbe008a9fbe008c9fbe000404be00ee
:103760000605be00809fbe00829fbe002f0007009e
:10377000040678000800be000a01be002b00070006
:10378000840678004f03be004f02be008d4f7600c6
:103790007fb0970013003300f0ff2f008b8f6b007a
:1037a00006003b000d0666000c00a7000a0037006b
:1037b00007f0a600100020000a003700880f520012
:1037c000898f5a008a0f5b008b8f5b0003003900e2
:1037d0001000200001003e000000200007f0a700bc
:1037e0000000ea004f06be004f05be004f04be00b9
:1037f00000000600e48240001078a30007003200b9
:10380000640240001178a3003400be001401be0021
:10381000040032000330a700000006003500be009f
:103820001501be000330a0000000060005ff2700c0
:1038300005826100070032000428e1000100320027
:10384000240005000600070001003a0044000500be
:103850000408050002000700f9ff3a001400050003
:103860006f82610081027000850271008502720022
:1038700000000600800078005002be005003be0029
:103880004439de00f700b200f37f2000030161003d
:10389000090032000218e10016003a0085017200aa
:1038a00083017300838173000008200015003a0033
:1038b000400020001300370085017200830173006f
:1038c0008381730005003a0004a8be0006a8be006c
:1038d000100020000b0037000201e9000402420042
:1038e00085824a0006034b0087834b000748a300ec
:1038f000f9ff32000740a00004a8be0006a8be00e1
:10390000200020008000980092009800000006002f
:10391000889fbe008a9fbe008c9fbe000404b80032
:103920000506b8008904460060854e000606b8000a
:103930000a054600e0854e000706b8008b054600e4
:10394000040eb800890446000a854e00e0854d004b
:10395000050eb8000a0546008b854e00060eb8001d
:103960008b0546000416b8000a0546008b854e00fc
:103970000516b8008b054600041eb8008b054600ee
:103980000800be000a01be004f06be004f05be0083
:083990004f04be000000060018
:020000040000fa
:10399800252d000032300000732000004c69000023
:1039a8006e650000202500002d3500006420000011
:1039b800257300000d0a000000530000686f000026
:1039c800756c0000642000006f6600002062000033
:1039d800656500006e2000007472000075650000c7
:1039e80000530000686f0000756c00006420000040
:1039f8006f66000020620000656500006e20000010
:103a0800666100006c7300006500000045780000e6
:103a180070650000637400006564000020250000e4
:103a280064200000627500007420000077610000c7
:103a38007320000025640000004500007870000035
:103a4800656300007465000064200000256c0000b8
:103a58007520000062750000742000007761000086
:103a680073200000256c00007500000045780000f8
:103a78007065000063740000656400002025000084
:103a88006620000062750000742000007761000065
:103a980073200000256600000045000078700000d3
:103aa8006563000074650000642000002573000051
:103ab8002062000075740000207700006173000028
:103ac80020250000730000004578000070650000a4
:103ad8006374000065640000202500007320000066
:103ae800746f0000206500006e64000020770000fd
:103af800697400006820000025730000004500007c
:103b080078700000656300007465000064200000a0
:103b180025730000207400006f20000073740000fb
:103b2800617200007420000077690000746800006a
:103b38002025000073000000457800007065000033
:103b480063740000656400002025000073200000f5
:103b5800746f00002062000065200000696e00009c
:103b68002025000073000000457800007065000003
:103b780063740000656400002025000073200000c5
:103b88006e6f000074200000746f00002068000051
:103b980061760000652000002573000020690000a0
:103ba8006e200000697400000020000025730000ea
:103bb800200000000d0000002564000020720000b5
:103bc800756e0000202000002564000020660000bb
:103bd800616900006c65000064000000302e000080
:103be800350000000d0a00000d0a00003d3d0000f0
:103bf8003d3d00003d3d00003d3d00003d3d0000d5
:103c08003d3d00003d3d00003d3d00003d3d0000c4
:103c18005345000041540000455300005420000063
:103c280076250000733d00003d3d00003d3d00004d
:103c38003d3d00003d3d00003d3d00003d3d000094
:103c48003d3d00003d3d00003d3d00003d0d0000b4
:103c58000a0d00000a0000002020000020200000bb
:103c6800202000002020000020200000202000004c
:103c7800202000002020000020200000202000003c
:103c88002020000046610000696c000065640000a7
:103c98000d0000002020000020200000202000004f
:103ca800202000002020000020200000202000000c
:103cb800204100004c4c00002054000045530000f7
:103cc80054530000205000004153000053450000a9
:103cd800440d0000002000002020000020200000eb
:103ce80020200000202000002020000020200000cc
:103cf800202000002020000025640000207400001f
:103d0800657300007473000020720000756e000077
:103d18000d0a0000002000002020000020200000e4
:103d2800202000002020000020200000202000008b
:103d38002020000020200000202000002069000032
:103d48006e200000256c0000752000006d730000d7
:103d58000d0a0000003d00003d3d00003d3d000013
:103d68003d3d00003d3d00003d3d00003d3d000063
:103d78003d3d00003d3d00003d3d00003d3d000053
:103d88003d3d00003d3d00003d3d00003d3d000043
:103d98003d3d00003d3d00003d3d00003d3d000033
:103da8003d3d00003d3d00003d3d00003d3d000023
:103db8003d3d00003d3d00003d0d000000000000bd
:103dc800fe04000078ff0000be2d00000400000083
:103dd80001010000a84e0000327c000089000000ac
:103de800edd90000687700000000000000590000cd
:103df80000000000000000000000000000000000bb
:103e0800d69f0000dca8000018170000aa90000048
:103e18004373000027f60000b9680000edf40000c5
:103e2800ded4000009fe0000e61c00001c8400002f
:103e3800dde800000b990000292700004e00000073
:103e4800000000000f030000000000000000000058
:103e580000990000b7330000527600009415000066
:103e680000f300007c00000000260000149e000003
:103e7800988f000000000000006a00003116000062
:103e88008f8c00000596000000e70000b73f000097
:103e980036000000000000000000000000000000e4
:103ea800af6600009ed00000385d00008a6c0000fc
:103eb80020b9000054220000007c0000ed0400003e
:103ec8004c8000003874000086ed0000cbfa00003a
:103ed80057cb0000dc190000e22e00001ddf0000b7
:103ee80055060000e5cb000001c300006da80000e6
:103ef800b50000000000000000000000009a00006b
:103f0800b200000086db0000d0bc000054160000a0
:103f180013150000860000004e440000bd7f00001d
:103f28009a1500001590000001ea000049b500004c
:103f380016530000a78a0000eaf000002fbd000019
:103f480034ae0000e5550000000000004800000005
:103f58000000000000000000004700000000000012
:103f6800000000000000000086cd000000000000f6
:103f78000000000000000000000000000000000039
:103f88000000000000000000000000000000000029
:103f98000000000000000000000000000000000019
:103fa8000000000000000000000000000000000009
:103fb80000000000000000000000000000000000f9
:103fc800000000000000000008cc000031aa00003a
:103fd8002c5300002e000000686500006c6c000087
:103fe8006f200000776f0000726c000064210000f1
:103ff80000680000656c00006c6f0000006700003e
:104008006f6f000064620000796500000021000005
:1040180000680000656c00006c000000757400000a
:1040280065730000747300002f7500006e6900004e
:10403800742e0000630000007465000073740000b3
:104048005f650000786100006d7000006c6500001d
:104058000074000065730000745f0000657800005c
:0c406800616d0000706c0000650000003d
:020000040000fa
:104074000000fa000000eb000080fa0000000600d7
:104084000000fa000080fa00000006000200fa00b6
:10409400000f78009e007800014188000080fa003b
:1040a400000006000200fa00000f78009e0078006d
:1040b400114188000080fa00000006000000fa00a8
:1040c400004180000000e000020032000041800056
:1040d400000001000080fa00000006000000fa0061
:1040e400104180000000e000020032001041800016
:1040f400000001000080fa00000006000200fa003f
:10410400000f78009e007800214188000080fa00aa
:10411400000006000200fa00000f78009e007800fc
:10412400314188000080fa00000006000000fa0017
:10413400204180000000e0000200320020418000a5
:10414400000001000080fa00000006000000fa00f0
:10415400304180000000e000020032003041800065
:10416400000001000080fa00000006000400fa00cc
:10417400100798001e00900097f207009e00900020
:10418400008f4000010037001e0fe9001e00900060
:104194009e007800808f5000050032001e007800d9
:1041a40090407800c0c5b30080cf5000f6ff3a00bd
:1041b4001e00780090407800c0c5b30080cf500046
:1041c40001003a001e0fe8001e0078000080fa008b
:1041d400000006000800fa00000f7800110798009c
:1041e40022079800330798001e0078000000e000c2
:1041f4000e003a009e009000811f7800be009000df
:10420400811f7800ae009000811f7800c0cc290087
:10421400801f780047f90700e8875700e0408000d6
:104224000000e800e040880003003700d040800030
:104234000000e800d04088000080fa00000006007a
:104244000600fa00000f7800110798002207980072
:10425400ae0190001e01900011ce29001e007800ce
:10426400dcff07000080fa00000006000600fa00e8
:10427400000f780011079800220798001e007800ac
:1042840000f0a7000000ea000000e9004f00de0093
:10429400ae0190001e01900051cf2900cdff070010
:1042a4000080fa00000006000808fa0004802000dc
:1042b40004024700000a7800208020000000470024
:1042c40001087800408020000000470002087800c0
:1042d4006080200000004700030878002080200050
:1042e40000004700901f7800008020000000470075
:1042f400901f7800a0d02900801f78000e0078005d
:104304006ff20700e6875700008020008000470016
:10431400208020000000470011017800100069008f
:1043240000f0a7000000ea000000e9004f00de00f2
:104334006180200001014700418020008100470086
:1043440092017800110178008e007800a1ff070027
:104354000080fa00000006000c08fa000680200025
:1043640006034700008bbe00408020000000470089
:104374000288be0080802000000047000408780006
:10438400a08020000000470005087800408020003d
:10439400000047001000be00809fbe000080200087
:1043a400000047001000be00809fbe0010d229000c
:1043b400801f78000e00780041f20700ea8757005a
:1043c40000802000000047004180200001014700d8
:1043d4001000be0032026800a28268000400be0021
:1043e4000080700000f0a7000000ea000000e9006f
:1043f4004f00de00a18020000101470081802000e1
:104404008100470092017800110178008e00780045
:1044140070ff07000080fa00000006001408fa008c
:10442400881f78004880200008044700008cbe00e4
:1044340080802000000047000288be00c080200069
:10444400000047000488be000081200000004700ef
:104454000608780020812000000047000708780043
:104464004080200000004700818020008100470038
:104474001101be001000be00e3f00700008fbe0073
:104484006401470080802000000047001000be0047
:10449400809fbe0040802000000047001000be0046
:1044a400809fbe00a0d32900801f780002007800fe
:1044b40003f20700ea87570018c0b3006011b80080
:1044c4001e00be002ef107000000e00001003500d0
:1044d4000044eb000804e000040032001e01be00aa
:1044e4006000b800c8f00700008fbe00c080200044
:1044f40000004700180020001001be001e00be008e
:104504001ff107000000e000010034000004eb008c
:104514002081200000014700008120008000470026
:10452400640047009201780011017800800078004f
:104534000800780027ff07004f0478000080fa0085
:10454400000006001408fa00881f78004880200044
:1045540008044700008cbe00808020000000470053
:104564000288be00c0802000000047000488be000e
:104574000081200000004700060878002081200008
:104584000000470007087800408020000000470032
:1045940081802000810047001101be001000be0090
:1045a40099f00700008fbe0064014700808020005e
:1045b400000047001000be00809fbe004080200025
:1045c400000047001000be00809fbe00a0d3290059
:1045d400801f780002007800b9f10700ea875700cd
:1045e40018c0b3006011b8001e00be00e4f007005c
:1045f4000000e000010035000044eb000804e00086
:10460400040032001e01be006000b8007ef0070006
:10461400008fbe00c080200000004700180020006a
:104624001001be001e00be00d5f007000000e0002f
:10463400010034000004eb00208120000001470049
:104644000081200080004700640047009201780048
:10465400110178008000780008007800ddfe070072
:104664004f0478000080fa00000006000808fa00f1
:104674000480200004024700000a78002080200003
:104684000000470001087800408020000000470037
:1046940002087800608020000000470003087800ca
:1046a4002080200000004700901f78000080200038
:1046b40000004700901f780010d52900801f780063
:1046c4000e0078007ef10700e68757002080200066
:1046d400800047000080200000004700910078001f
:1046e4001000780035f1070000f0a7000000ea0090
:1046f4000000e9004f00de00618020000101470056
:104704004180200081004700920178001101780067
:104714008e007800affe07000080fa00000006005b
:104724000808fa00881f780004802000040247006b
:10473400000a78002080200000004700010878006b
:1047440040802000000047000208780060802000bc
:1047540000004700030878000080200000004700a4
:10476400901f78002080200000004700901f7800f0
:1047740080d62900801f78000e00780050f10700d1
:10478400e6875700208020000000470010007800d2
:1047940011f10700000478000080200000004700a9
:1047a400100078000cf10700000054002180200064
:1047b40081004700110040000180200001014700f2
:1047c4008000780012007800fcf0070000f0a700d9
:1047d4000000ea000000e9004f00de0061802000d4
:1047e40001014700418020008100470092017800c8
:1047f400110178008e00780076fe07004f047800df
:104804000080fa00000006000808fa000480200076
:1048140004024700000a78002080200000004700be
:10482400010878004080200000004700020878005a
:10483400608020000000470003087800008020000a
:1048440000004700901f78002080200000004700ef
:10485400901f780030d82900801f78000e0078005f
:1048640017f10700e687570000802000000047008a
:1048740010007800d8f00700218020008100470054
:104884000280200082014700000178009100780036
:1048940013007800d6f0070000f0a7000000ea003b
:1048a4000000e9004f00de006180200001014700a4
:1048b40041802000810047009201780011017800b6
:1048c4008e00780043fe07000080fa000000060016
:1048d4000808fa000480200004024700000a780057
:1048e400208020000000470001087800408020005c
:1048f40000004700020878006080200000004700a4
:10490400030878002080200000004700901f7800f2
:104914000080200000004700901f780000da290082
:10492400801f78000e007800e5f00700e687570046
:104934000080200080004700208020000000470005
:104944009100780010007800b8f0070000f0a7008c
:104954000000ea000000ea004f00de006180200051
:104964000101470041802000810047009201780046
:10497400110178008e00780016fe07000080fa000e
:10498400000006000808fa00048020000402470022
:10499400000a780020802000000047000108780009
:1049a400408020000000470002087800608020005a
:1049b4000000470003087800008020000000470042
:1049c400901f78002080200000004700901f78008e
:1049d40080db2900801f78000e007800b8f0070003
:1049e400e6875700008020008000470020802000d8
:1049f4000000470091007800100078008bf0070059
:104a040000f0a7000000ea000000e9004f00de000b
:104a1400618020000101470041802000810047009f
:104a240092017800110178008e007800e9fd0700fa
:104a34000080fa00000006000000fa00c040800078
:104a44000000e800c04088000080fa000000060072
:104a54000c00fa003007980041079800224f980094
:104a64003e0090005cf0070010079800e1ff2f0063
:104a74001e009000808050004e0090008080400016
:104a84002000200000017800110009008200d800f5
:104a9400200798000000eb00000f780004003700a6
:104aa4002e4890000000fb0076f007001e0fe8007f
:104ab4002e0090009e007800808f5000f8ff350093
:104ac400be009000811f780090dd2900801f7800cf
:104ad40018f70700e4875700ae0090001e0090000e
:104ae40000804000008fe800040037002e4890004a
:104af4000000fb0063f007001e0fe8004e0090006a
:104b04009e007800808f5000f8ff3500e0dd29001a
:104b140020f007000080fa00000006000200fa00fe
:104b2400000f78001e00780090fd0700f040880018
:104b3400f0408000d2c2b30021032000c4ff07006c
:104b4400e040800050418800c0408000404188001f
:104b54002628ef002428ef000080fa000000060059
:104b64000008fa00e140800050418000808050003d
:104b7400c24080004041800000005100811f780045
:104b8400801f780000de2900801f78000e00780066
:104b94004bf00700e687570002c2b3002103200050
:104ba4000e007800aaff0700e0dd2900f9ef0700f6
:104bb4000080fa00000006000200fa00000f7800ee
:104bc4009e007800614188000080fa000000060021
:104bd4000200fa00000f78009e00780071418800fe
:104be4000080fa00000006000600fa001007980092
:104bf4002107980010002000000f78006041800019
:104c04000000e0000b00320060418000f2ef07007a
:104c14008000780060418000010178009e009000cf
:104c2400f3ef07000000e000020032000000eb0098
:104c3400000f7800704180000000e0000b0032009b
:104c440070418000e4ef070080007800704180002c
:104c540001017800ae009000e5ef07000000e000dd
:104c6400020032000000eb00000f78001e00780004
:104c74000080fa00000006000a00fa0040079800cd
:104c8400fbfc07008000eb00008fbe004e0090008c
:104c940000000100f6fc07008000eb0020079800ec
:104ca4003107980020df2900801f780060df290089
:104cb400801f78009ff60700e4875700e0408000db
:104cc4000000e0000300340000e32900b1ef070016
:104cd40002003700e0e42900aeef0700c040800086
:104ce400801f7800f0e62900801f780091f6070005
:104cf400e48757002e009000be0090003e01500053
:104d0400ae8158000200be00809fbe00f0e829007a
:104d1400801f780087f60700e6875700f0ea29002d
:104d24009cef0700d6fc0700e040800000f0a700dd
:104d34000000ea000000e9004f00de000080fa00f5
:104d4400000006000000fa000080200001dd2000c1
:104d5400110098000080200001dd20000108780087
:104d640001802000210090000010a000a000980005
:104d740001802000210090000000a100a000980004
:104d8400008020008040eb0061409800200020005b
:104d9400701788000000280080178800f422ef00b4
:104da4008a40a9009a40a8000080fa00000006008a
:104db4000000fa00e3ff07000080fa00000006008c
:104dc4000200fa0000802000e0409000014f7800cb
:104dd4001e4078000080fa00000006003600f8004b
:104de400809fbe00829fbe00849fbe00869fbe003f
:104df4000000fa008a40a900a117800000082000e2
:104e0400008060000000e00008003200f4e2a90025
:104e14000828ef0070408000200090008000eb0024
:104e2400010878000e28ef000d0137004040800093
:104e34008000eb00b200200003002000820f50002d
:104e4400838f5800fc003e00006001000b00370017
:104e540039003700750037009c003700f300370035
:104e6400c8003700d9003700f0003700db003700f6
:104e7400f100370034003700500037000080200074
:104e840020009000620060000000e000f3003a009f
:104e940000802000100090007040880000802000f6
:104ea40010009000104078000ae8b700008020004d
:104eb40010009000100090006040880000802000e6
:104ec40010009000e60040000080200011009800cf
:104ed400008020009000900060dd2000808f500052
:104ee40003003a000080200001dd2000110098003a
:104ef40001802000210090000000a100a000980083
:104f040000802000900090000080200010007800b5
:104f1400808f500004003a0001802000210090009e
:104f24000010a000a0009800f002a80020002000bb
:104f340040408800ca003700f022a800200020006a
:104f440040408800c6003700a117800000002800f8
:104f5400008060000000e0000800320000802000b3
:104f6400604090008040e80000802000614098008c
:104f740040002000d2000700b900370080408000c4
:104f84008000d100f00f20000080600060178800ce
:104f94008040800061006000004078000004e00070
:104fa40003003200b000200040408800ac0037000d
:104fb4003000200040408800a9003700a11780007d
:104fc40000002800008060000000e00008003200bb
:104fd40000802000604090008040e80000802000b5
:104fe4006140980040002000b50007009c00370095
:104ff400f022a800804080004800de00e600600047
:10500400000f200001007000804088008040800074
:105014000000a0008040880010c0b30012e8b70070
:1050240020002000404088008d00370012c8bf00d7
:10503400e14f50000a003200604080001000780008
:10504400804088006040800020009000a0408800dc
:10505400604080002040900016e8b700010037004f
:105064001268ef0081408000f00f2000808f500014
:1050740009003600804080004800de00e600600041
:10508400000f20000100700060178800a0002000bd
:10509400404088007200370080408000601788001c
:1050a4008040800061006000004078000004e0005f
:1050b40003003200500020004040880068003700a0
:1050c400300020004040880065003700a1178000b0
:1050d40000002800008060000000e00009003200a9
:1050e40000802000604090008040e80000802000a4
:1050f40061409800f5e2a90050002000700007000c
:105104005700370016c8bf008080fb008100e9000b
:10511400cf08de00814078000040e90016e8b700bf
:105124000104e0001000320060408000660040008e
:10513400604088000ac8bf000040e9000ae8b700e0
:105144000ac8bf000004e00003003a002000200069
:105154005b00070042003700f022a8002000200076
:10516400404088003e003700a04080009040780016
:105174008180fb00611788000000e800a0408800df
:1051840037003700a117800000002800008060006d
:105194000000e00009003200008020006040900020
:1051a4008040e8000080200061409800400020001a
:1051b40043000700f5e2a90029003700f062a800c7
:1051c4008000200040408800250037008000200037
